:040000000C948000DC
:100004000C9400000C9400000C9400000C9400006C
:100014000C9400000C9400000C9400000C9400005C
:100024000C9400000C9400000C9400000C9400004C
:100034000C9400000C9400000C9400000C9400003C
:100044000C9406010C9400000C9400000C94000025
:100054000C94BD000C9400000C9400000C9400005F
:100064000C9400000C9400000C9400000C9400000C
:100074000C9400000C9400000C9400000C940000FC
:100084000C9400000C9400000C9400000C940000EC
:100094000C9400000C9400000C9400000C940000DC
:1000A4000C9400000C9400000C9400000C940000CC
:1000B4000C9400000C9400000C9400000C940000BC
:1000C4000C9400000C9400000C9400000C940000AC
:1000D4000C9400000C9400000C9400000C9400009C
:1000E400EB88B3BAD87A7BA8FBFA000000000A00B8
:1000F400080AE40004000300EE000000F894EE2770
:10010400EFBBF1E0F5BFE5BFE0937400E093750049
:10011400F8E1A895A4B7A77FA4BFF0936000E0938B
:1001240060008DE0A2E0BB27ED938A95E9F780E0BB
:1001340090E2A0E0B2E0ED930197E9F7E2EFF0E09E
:1001440085919591009761F0A591B59105901590D1
:10015400BF01F00105900D920197E1F7FB01F0CF8B
:100164008BBFE0E0EEBBEFEFEDBFE1E2EEBFC0E03E
:10017400DAE00C944B010A92EA93FA93EFB7EA930C
:10018400052C062839F4E091000AF091010ABFD049
:10019400E0E8E1BBE1E0F0E0E515F60539F4E091D3
:1001A400020AF091030AB3D0E0E4E1BBE2E0F0E03C
:1001B400E515F60561F4E091040AF091050AE85F9B
:1001C400F54FE081E460E0930801E0E2E1BBE3E0A5
:1001D400F0E0E515F60539F4E091060AF091070A16
:1001E40096D0E0E1E1BBE1E0F0E05E0E6F1EE4E0FA
:1001F400F0E0E515F60511F455246624E991EFBF06
:10020400F991E99109901895AA93BA93EA93FA930C
:10021400EFB7EA93A0E0BAE080D0A091000AB091D1
:10022400010A1A9741F4A2E0BAE077D0E0E0E09343
:10023400000AE093010AE091020AF091030AE63011
:10024400A0E0FA0731F4A4E0BAE067D0E2E0FAE013
:100254006AD0E091040AF091050AEA30A0E0FA07B6
:1002640031F4A6E0BAE059D0E4E0FAE05CD0E091E1
:10027400060AF091070AE630A0E0FA0719F4E6E06E
:10028400FAE051D0E991EFBFF991E991B991A991BF
:100294001895E0E8E0936100E0E0E0936100E1BBE1
:1002A400E0EFE0BBE0E0E0930801EFEFE09307014B
:1002B400E2E0E4BDE5E0E5BDE0E0E6BDE6E1E7BDA2
:1002C400E0E0E8BDE0938000EDE0E0938100E0E051
:1002D400E0938500E0938400E0938700E093860038
:1002E400EAE2E0938900E0E3E0938800E0E0E09351
:1002F4008B00E0938A00E0938D00E0938C00E2E0B1
:10030400E0936E00E0936F007894FFCFFFCFE85F37
:10031400F54FE081E09308010895ED91FD91319648
:10032400FE93EE930895A0E0B0E0A083B183089516
:00000001FF
