:080000000C943E000C9400007A
:100008000C9400000C9400000C9400000C94000068
:100018000C9400000C9400000C9400000C94000058
:100028000C9400000C9400000C9400000C94000048
:100038000C9400000C9400000C9400000C94000038
:100048000C9400000C9400000C940000FFFFFFFFCC
:10005800000080C001002D4E414E00494E46000070
:10006800060004005400020064025A0001006902FC
:100078005C000000F894EE27ECBBF1E0FBBFEBBF9F
:10008800E5BFF8E1F1BDE1BD8DE0A2E0BB27ED934E
:100098008A95E9F780E098E0A0E6ED930197E9F703
:1000A800E8E6F0E085919591009761F0A591B5910A
:1000B80005901590BF01F00105900D920197E1F7A9
:1000C800FB01F0CFEFE5EDBFE8E0EEBFC0E6D2E020
:1000D8000C94DC00AA93A881A13091F0A23081F0A1
:1000E800A33071F0A43061F0A53051F0A63041F092
:1000F800A73031F0A83021F0A93011F0A030E1F498
:10010800992069F4EFEFFFEFE415F50529F0F20106
:100118000E9439022F0102C0488055240CC0EFEF1D
:10012800FFEFE615F70529F0F3010E9439023F01B8
:1001380002C0688077243BC0A881AD3351F5EBE25B
:10014800E81521F4F301E40DF51D16C0EDE2E815FC
:1001580021F4F201E619F7090FC0EAE2E81529F4DB
:10016800F301D2010E94690207C0EFE2E81529F401
:10017800F301D2010E9481025F01EFEFFFEF2F012F
:100188003F019924BA92AA92A0E6B2E00E940B021B
:100198000EC0A881A33631F4EFEFFFEF3F012F0126
:1001A800992405C08880E92D0E945C029E2E2DC1ED
:1001B800E0E0EBBBEABBE8BBE7BBE5BBE4BBE2BB0B
:1001C800EFE0E1BBA0E1F5D02297E0E0E883E98326
:1001D800A881B981149714F00C947201E881F9810F
:1001E8003097D1F4909A849B04C0A7E3BAD0A7E0D3
:1001F80071DF859B04C0A8E3B4D0A8E06BDF869BC1
:1002080004C0A9E3AED0A9E065DF879B04C0AFE2D4
:10021800A8D0AFE25FDF5AC0A881B9811197D1F4A5
:10022800919A849B04C0A4E39CD0A4E053DF859BEF
:1002380004C0A5E396D0A5E04DDF869B04C0A6E3E5
:1002480090D0A6E047DF879B04C0AAE28AD0AAE242
:1002580041DF3CC0A881B9811297D1F4929A849B5E
:1002680004C0A1E37ED0A1E035DF859B04C0A2E3F2
:1002780078D0A2E02FDF869B04C0A3E372D0A3E06E
:1002880029DF879B04C0ADE26CD0ADE223DF1EC03E
:10029800A881B9811397D1F4939A849B03C051D054
:1002A800A3E618DF859B04C0A0E35BD0A0E012DFC3
:1002B800869B06C0ADE30EDF44D0A0E6B2E068D06E
:1002C800879B04C0ABE24DD0ABE204DFE0E0E2BBC9
:1002D800E881F9813196E883F9837ACFA8EC0E9406
:1002E8004302229671CFFFCFAA93E5B3EF70AE2FEA
:1002F800E881E07FEA2BE5BB85E08A95F1F7AA9AC9
:100308008DE08A95F1F7AA988DE08A95F1F77DC07E
:10031800AA93A881E9DFE881E295E883A881E4DF70
:1003280085E88A95F1F771C0AA93E881F0E0EC5965
:10033800FD4FE081A981AE0FEBDFD980C8802296FE
:100348000895A2E0E5DFA3E00E944302ACE0E0DF0D
:10035800A1E0DEDFA3E00E944302E0E0CE2EDE2E25
:100368000895AA93A881AA3021F0E0916802DE16C8
:1003780048F0E0E0EA93C394AC2DD6DFA881AA3018
:1003880009F443C0D394A89AA881C2DFA8983DC0B5
:10039800BA93AA931A93A981BA81ED91A983BA83D2
:1003A8001E2FE03019F0A12FDCDFF5CF188123963E
:1003B8000895AA93E4B3E06FE4BBA29AA09AA19A25
:1003C800AA98A898A998E881E0936802E058E09371
:1003D8006602E881E054E0936702A4E10E944302C8
:1003E8000E9446020E9446020E944602A0E27CDF6A
:1003F80088EC90E00197F1F7A8E28ADFA4E088DFB3
:10040800A5E886DFA6E084DF9CDF21960895BA93ED
:10041800AA93A991B991E991F99130962AF4E095B6
:10042800F09531966DE26D93E89480E197E20DD0F6
:1004380088EE93E00AD084E6992707D08AE005D0B1
:100448006E2F10D066276C9308956627E817F90772
:1004580020F06395E81BF90BC9F7662311F416F031
:1004680008956894605D6D930895AAE0B0E00E94D5
:100478006902DF01E881F0E0EA0FFB1F0895B0E0B0
:100488000C944E02A0E30E94780188EC90E001975A
:10049800F1F70895109639F080ED97E00197F1F79C
:1004A800A8951197C9F70895F195E195F040089539
:1004B800EE23E1E009F0EE270895FA9FF02DEB9F77
:1004C800F00DEA9FE02DF10D08951CD0F6DF0EF433
:1004D800EBDF08950024112490E1AA0FBB1F001C34
:1004E800111C0E1A1F0A18F40E0E1F1E01C0A1605F
:1004F8009A9599F7FD01D001089504D0EBDF0EF429
:10050800D3DF0895E894F7FF02C0CEDF6894B7FF01
:1005180006C0A095B095119600F8039400FA0895C6
:00000001FF
