:020000000C945E
:10000200AD000C9400000C9400000C9400000C94C1
:1000120000000C9400000C9400000C9400000C945E
:1000220000000C9400000C9400000C9400000C944E
:1000320000000C9400000C9400000C9400000C943E
:1000420000000C94EA000C9400000C9400000C9444
:1000520000000C9400000C9400000C9400000C941E
:1000620000000C9400000C9400000C9400000C940E
:1000720000000C9400000C9400000C9400000C94FE
:1000820000000C9400000C9400000C9400000C94EE
:1000920000000C9400000C9400000C9400000C94DE
:1000A20000000C9400000C9400000C9400000C94CE
:1000B20000000C9400000C9400000C9400000C94BE
:1000C20000000C9400000C9400000C9400000C94AE
:1000D20000000C9400000C9400000C9400000C949E
:1000E200000017003B00000A030A060A090A32331D
:1000F20000353900303000636C6F636B003A3000BA
:1001020080C001002D4E414E00494E4600000300C2
:10011200190AE4000300000AF0000300030AF300D6
:100122000300060AF6000200090AF7000800210A85
:10013200E80006000B0AF9000200110AF7000300AA
:10014200130AFF000300160AFF000200290A020137
:1001520001002D0A04010000F894EE27EFBBF1E044
:10016200F5BFE5BFE0937400E0937500F8E1A89550
:10017200A4B7A77FA4BFF0936000E09360008DE076
:10018200A2E0BB27ED938A95E9F780E090E2A0E038
:10019200B2E0ED930197E9F7E0E1F1E08591959105
:1001A200009761F0A591B59105901590BF01F001FE
:1001B20005900D920197E1F7FB01F0CF8BBFE0E0D4
:1001C200EEBBEFEFEDBFE1E2EEBFC0E0DAE00C9490
:1001D2003701AA93BA93EA93FA93EFB7EA93AFE19E
:1001E200BAE00E94AE02E0911F0AF091200AEA30C2
:1001F200A0E0FA0741F4EFE1FAE00E94B402ADE1B7
:10020200BAE00E94AE02E0911D0AF0911E0AEC33A0
:10021200A0E0FA0741F4EDE1FAE00E94B402ABE19A
:10022200BAE00E94AE02E0911B0AF0911C0AEC3384
:10023200A0E0FA0749F4EBE1FAE00E94B402A9E176
:10024200BAE00E94AE023197A091190AB0911A0A3F
:10025200589729F4E0E0E093190AE0931A0AE99129
:10026200EFBFF991E991B991A9911895E0E8E0936E
:100272006100E0E0E0936100E2B9E1B9E5B9E4B917
:10028200E8B9E7B9EBB9EAB9EEB9EDB9E1BBE0BB60
:10029200E4BBE3BBE0930201E0930101E0930501BB
:1002A200E0930401E0930801E0930701E0930B015E
:1002B200E0930A01E0938000EDE0E0938100E0E04A
:1002C200E0938500E0938400E0938700E09386004A
:1002D200E4E0E0938900E8E3E0938800E0E0E09363
:1002E2008B00E0938A00E0938D00E0938C00E2E0C3
:1002F200E0936F00A0E1D5D07894A1D0E5E0EA9335
:10030200A0E090D0ABE0BAE0BBD0E3E0EA93A1E09A
:1003120089D0E091190AF0911A0AFA93EA93A0910E
:10032200210AB091220A0E948002E0911B0AF091F8
:100332001C0AFA93EA93A091230AB091240A0E941C
:100342008002E0911D0AF0911E0AFA93EA93A091AD
:10035200250AB091260A0E948002E0911F0AF091BC
:10036200200AFA93EA93A091270AB091280A0E94E0
:100372008002A091190AB0911A0A1A971CF4A1E1FD
:10038200BAE07ED0A091210AB091220A79D0A09140
:100392001B0AB0911C0A1A9724F4A3E1BAE070D0A8
:1003A20002C0AAE358D0A091230AB091240A68D0CF
:1003B200A0911D0AB0911E0A1A9724F4A6E1BAE090
:1003C2005FD002C0AAE347D0A091250AB091260AC5
:1003D20057D0AEE240D0A091270AB091280A50D05F
:1003E2008DCFFFCFAA93E2B1EF70AE2FE881E07F0D
:1003F200EA2BE2B987E08A95F1F7129A82E18A95AF
:10040200F1F7129882E18A95F1F777C0AA93A88151
:10041200E9DFE881E295E883A881E4DF88EB8A9549
:10042200F1F76BC0AA93E881F0E0E75DF54FE08158
:10043200A981AE0FEBDF4980388022960895A2E0B1
:100442000E94B902ACE0E2DFA1E00E94B902E0E062
:100452003E2E4E2E0895AA93A881AA3011F046147A
:1004620048F0E0E0EA933394A32DDCDFA881AA30C0
:1004720009F443C04394109AA881C8DF10983DC084
:10048200BA93AA931A93A981BA81ED91A983BA83E7
:100492001E2FE03019F0A12FDEDFF5CF1881239651
:1004A2000895AA93E1B1E06FE1B90A9A089A099A0C
:1004B2001298109811986880E881E058E0932B0A0E
:1004C200E881E054E0932C0AA4E1B0E00E94C70264
:1004D2000E94BF020E94BF020E94BF02A0E282DF0E
:1004E20084E191E00197F1F7A8E290DFA4E08EDFCA
:1004F200A5E88CDFA6E08ADFA2DF21960895BA93F1
:10050200AA93A991B991E991F99130962AF4E095CB
:10051200F09531966DE26D93E89480E197E20DD00B
:1005220088EE93E00AD084E6992707D08AE005D0C6
:100532006E2F10D066276C9308956627E817F90787
:1005420020F06395E81BF90BC9F7662311F416F046
:1005520008956894605D6D930895ED91FD913196D3
:10056200FE93EE930895A0E0B0E0A083B1830895D6
:100572000E940702A3E0B0E00C94C702A0E30E942D
:10058200F30184E191E00197F1F70895109639F0B3
:100592008DEC9AE00197F1F7A8951197C9F70895A4
:00000001FF
