:020000020000FC
:020000002AC014
:020044005CC09E
:1000540027C001E20EBF0FEF0DBFBFEFB0BBB093DF
:10006400070141E060E070E080E090E002E004BD60
:1000740005E005BD06E107BD02E000936E0000E067
:10008400009380000DE0009381000AE20093890050
:1000940000E300938800789402E000936F00FFCFA0
:1000A400413031F0423069F04330A1F04430E1F0A6
:1000B400562F0E949E005093080150E851BB43956F
:1000C4001895572F0E949E005093080150E451BB8D
:1000D40043951895582F0E949E0054605093080130
:1000E40050E251BB43951895592F0E949E0050939E
:1000F400080150E151BB41E01895693011F0639556
:10010400189560E0753011F07395189570E089309A
:1001140011F08395189580E0953011F0939518951A
:1001240060E070E080E090E018952FE13FEF3A95B1
:10013400F1F72A95D9F70895503011F45BEE08953C
:10014400513011F458E80895523011F453EB0895E6
:10015400533011F45AEB0895543011F458ED0895C6
:10016400553011F45AE70895563011F45BE70895B9
:10017400573011F458EA0895583011F45BEF08959C
:040184005AEF089591
:00000001FF
