:080000000C9447000C94000071
:100008000C9400000C9400000C9400000C94000068
:100018000C9400000C9400000C9400000C94000058
:100028000C9400000C9400000C9400000C94000048
:100038000C9400000C9400000C9400000C94000038
:100048000C9400000C9400000C940000701C131316
:100058001C70007F49494E30001C2241414122005A
:100068007F414141221C007F49494941007F0909DC
:10007800090100000000000026006002540006008C
:1000880004007A000000F894EE27ECBBF1E0FBBF17
:10009800EBBFE5BFF8E1F1BDE1BD8DE0A2E0BB2714
:1000A800ED938A95E9F780E098E0A0E6ED93019753
:1000B800E9F7E0E8F0E085919591009761F0A59166
:1000C800B59105901590BF01F00105900D9201972B
:1000D800E1F7FB01F0CFEFE5EDBFE8E0EEBFC0E6EA
:1000E800D2E00C947700E0E0EBBBEABBE8BBE7BBEF
:1000F800E5BBEFEFE4BBE0E0E2BBEFEFE1BBE5E03F
:10010800F0E08E169F0604F5E1E0E2BB4424552496
:10011800E8E0F0E04E165F069CF4F201E60DF71DEC
:10012800E05AFD4FE081E095E5BBA5E0B0E00E9414
:10013800BA00E2B3EE0FE2BBF20131962F01E8CF2D
:10014800F40131964F01DBCFF30131963F01A4E171
:10015800B0E00E94BA00ECE2F0E0E615F70514F40E
:100168006624772488249924CACFFFCF109639F0C3
:1001780080ED97E00197F1F7A8951197C9F70895D1
:00000001FF
