:080000000C9499000C9400001F
:100008000C9400000C9400000C9400000C94000068
:100018000C9400000C9400000C9400000C94000058
:100028000C9400000C9400000C9400000C94000048
:100038000C9400000C9400000C9400000C94000038
:100048000C9400000C9400000C9400000C94000028
:100058000C9400000C9400000C9400000C94000018
:100068000C9400000C9400000C9400000C94000008
:100078000C9400000C9400000C9400000C940000F8
:100088000C9400000C9400000C9400000C940000E8
:100098000C9400000C9400000C9400000C940000D8
:1000A8000C9400000C9400000C9400000C940000C8
:1000B8000C9400000C9400000C9400000C940000B8
:1000C8000C9400000C9400000C9400000C940000A8
:1000D8000C9400000C9400000C94000074696D6589
:1000E8003A002000646174653A0080C001002D4E1A
:1000F800414E00494E4600000600000AE400020096
:10010800060AEA000200080AEA0006000A0AEC00E9
:100118000200100AEA000200120AEA000200140AA9
:10012800F2000100180AF4000000F894EE27EFBB73
:10013800F1E0F5BFE5BFE0937400E0937500F8E1E6
:10014800A895A4B7A77FA4BFF0936000E0936000D0
:100158008DE0A2E0BB27ED938A95E9F780E090E275
:10016800A0E0B2E0ED930197E9F7E0E0F1E08591D6
:100178009591009761F0A591B59105901590BF01F3
:10018800F00105900D920197E1F7FB01F0CF8BBFCD
:10019800E0E0EEBBEFEFEDBFE1E2EEBFC0E0DAE09A
:1001A8000C94D6006C97E0E8E0936100E0E0E093FF
:1001B8006100E2B9E1B9E5B9E4B9E8B9E7B9EBB981
:1001C800EAB9EEB9EDB9E1BBE0BBE4BBE3BBE09350
:1001D8000201E0930101E0930501E0930401E0933B
:1001E8000801E0930701E0930B01E0930A010E94E4
:1001F800C902E0E0EA93EA93A0E07CD0A0E126D12E
:10020800FE017596FA93EA93FE017A96FA93EA93B9
:10021800FE017B96FA93EA93DE015C969DD0FE017F
:100228007996FA93EA93FE017C96FA93EA93DE01B3
:100238005F9679D0EB8D0E949302DE0154960E945E
:100248005802EA8D0E949302DE0151960E945802DC
:10025800E98D0E949302DE011E960E945802ED89E4
:100268000E949302DE0112960E945802E88D0E94B5
:100278009302DE011B960E945802EF890E949302A6
:10028800DE0118960E945802EE890E949302DE0150
:1002980015960E945802A0E0BAE0C7D0DE011C966D
:1002A800C4D0A6E0BAE0C1D0DE011F96BED0A8E057
:1002B800BAE0BBD0DE015296B8D0E0E0EA93A1E004
:1002C80086D0AAE0BAE0B1D0DE011396AED0A0E1A4
:1002D800BAE0ABD0DE011696A8D0A2E1BAE0A5D06C
:1002E800DE011996A2D0A8EEB3E00E941A037CD0D2
:1002F80087CFFFCFAA93EA81E370EA83E981E030F0
:1003080019F0EA81E061EA83E881E03019F0EA81D6
:10031800E068EA830E949702A7E00E940203AA818C
:100328000E949C0291C0BA93AA930E949702A0E0EF
:100338000E949C020E94A0020E94A8020E94AF0292
:100348000E94B502AE2F0E948602AC81BD81EC935B
:100358000E94DD0226960895BA93AA930E949702F6
:10036800A3E00E949C020E94A002AE81BF81EC9390
:100378000E94AF02AC81BD81EC930E94AF020E9443
:10038800B5020E94A8020E94DD0228960895AA9349
:10039800E2B1EF70AE2FE881E07FEA2BE2B987E0A7
:1003A8008A95F1F7129A82E18A95F1F7129882E11B
:1003B8008A95F1F777C0AA93A881E9DFE881E295E9
:1003C800E883A881E4DF88EB8A95F1F76BC0AA93EC
:1003D800E881F0E0EC5EF54FE081A981AE0FEBDF3C
:1003E8004980388022960895A2E00E94BB02ACE0C2
:1003F800E2DFA1E00E94BB02E0E03E2E4E2E08950F
:10040800AA93A881AA3011F0461448F0E0E0EA93D4
:100418003394A32DDCDFA881AA3009F443C04394A8
:10042800109AA881C8DF10983DC0BA93AA931A936E
:10043800A981BA81ED91A983BA831E2FE03019F002
:10044800A12FDEDFF5CF188123960895AA93E1B195
:10045800E06FE1B90A9A089A099A129810981198C7
:100468006880E881E058E093160AE881E054E09358
:10047800170AA4E1B0E00E941A030E94C1020E9478
:10048800C1020E94C102A0E282DF84E191E00197EB
:10049800F1F7A8E290DFA4E08EDFA5E88CDFA6E004
:1004A8008ADFA2DF21960895BA93AA93A991B991F8
:1004B800E991F99130962AF4E095F09531966DE23C
:1004C8006D93E89480E197E20DD088EE93E00AD02E
:1004D80084E6992707D08AE005D06E2F10D06627CA
:1004E8006C9308956627E817F90720F06395E81BD1
:1004F800F90BC9F7662311F416F008956894605D46
:100508006D930895AA93E881E295EF70AE2FAA0F34
:10051800AA0FEA0FEE0FA991AF70EA0F0895F0E065
:10052800FA93EA9308950E94CE02A0ED0C94020378
:100538000E9402030C94DD020E94CE02A1ED0E94EB
:100548000203A1E00C94E702AE2F0E948602A88164
:10055800B981EC930895A1E00E94E702AE2F0C94B4
:100568008602AA81BB81EC93A0E00C94E7020E946A
:10057800DF01A3E0B0E00C941A03A0E30E94CB01D2
:1005880084E191E00197F1F7089558985998509AA5
:10059800519815C051985098EE270000499B08952E
:1005A800489B089504D0519A02D0509AE1E062E144
:1005B80007C0519A509A03D05098F9DF519865E2D4
:1005C8006A95F1F7089578E05098F1DF489BFECFDF
:1005D800EEDF889449990894509AF1DFEE1F7A95D6
:1005E80099F77A2F772311F4519801C0519ADFDFD8
:1005F8005098E5DF509ADBDF5198D9CF78E0AA0F01
:1006080010F4519801C0519ADADF5098D0DF489B16
:10061800FECFCDDF509A7A9591F75198C8DF509860
:10062800CEDFE1E04999EE27509AC1CF109639F014
:100638008DEC9AE00197F1F7A8951197C9F70895FD
:00000001FF
