:020000020000FC
:1000000001E20EBF0FEF0DBFBFEFB0BBB093070112
:1000100060E070E080E090E0A0E09395562F0E94B1
:100020004F005093080150E851BB0E944800572FE1
:100030000E944F005093080150E451BB0E944800B9
:10004000582F0E944F005093080150E251BB0E946C
:1000500048005A2F0E944F005093080150E151BBB5
:100060000E9448009436C9F690E0693011F063951B
:10007000D4CF60E0793011F07395CFCF70E0893044
:1000800011F08395CACF80E0A93011F2A395C5CFB6
:100090002FE13FEF3A95F1F72A95D9F708955030BF
:1000A00011F45BEE0895513011F458E80895523080
:1000B00011F453EB0895533011F45AEB0895543072
:1000C00011F458ED0895553011F45AE7089556305B
:1000D00011F45BE70895573011F458EA0895583049
:0A00E00011F45BEF08955AEF089544
:00000001FF
