:0E0000000C9489000C9400000C9400000C94E9
:10000E00C6000C94CF000C9400000C9400000C94CD
:10001E0000000C9400000C9400000C9400000C9452
:10002E0000000C9400000C9400000C9400000C9442
:10003E0000000C9400000C9400000C9400000C9432
:10004E0000000C9400000C9400000C9400000C9422
:10005E0000000C9400000C9400000C9400000C9412
:10006E0000000C9400000C9400000C9400000C9402
:10007E0000000C9400000C9400000C9400000C94F2
:10008E0000000C9400000C9400000C9400000C94E2
:10009E0000000C9400000C9400000C9400000C94D2
:1000AE0000000C9400000C9400000C9400000C94C2
:1000BE0000000C9400000C9400000C9400000C94B2
:1000CE0000000C9400000C9400000C9400000C94A2
:1000DE0000000C94000000002020000080C00100F1
:1000EE002D4E414E00494E4600000300000AE60028
:1000FE0001000400E40002000B0AEA0001000F0AEE
:10010E00EC000000F894EE27EFBBF1E0F5BFE5BF81
:10011E00E0937400E0937500F8E1A895A4B7A77F6B
:10012E00A4BFF0936000E09360008DE0A2E0BB27D7
:10013E00ED938A95E9F780E090E2A0E0B2E0ED93CE
:10014E000197E9F7E8EFF0E085919591009761F05E
:10015E00A591B59105901590BF01F00105900D92F6
:10016E000197E1F7FB01F0CF8BBFE0E0EEBBEFEFC5
:10017E00EDBFE1E2EEBFC0E0DAE00C94E6000E94D3
:10018E00F1014394A4EFB1E00E940D02E4E008C037
:10019E000E94F1014A94A4EFB1E00E940D02E8E042
:1001AE00ECBBE991EFBFF991E991B991A9919991C0
:1001BE00899179916991F990199009901895E0E8D3
:1001CE00E0936100E0E0E0936100E2B9E1B9E5B9E6
:1001DE00E4B9E8B9E7B9EBB9EAB9EEB9EDB9E1BB03
:1001EE00E0BBE4BBE3BBE0930201E0930101E093CB
:1001FE000501EFEFE0930401E0E0E0930801E093E6
:10020E000701E0930B01E0930A01E0EAE093690035
:10021E00E0E0E0936A00ECE0EDBBECBBE0E0E093E5
:10022E006B00E0936C00E0936D00E0936800A0E13A
:10023E0075D0789441D0E5E0EA93A0E030D0E42D7B
:10024E00F0E0FA93EA93A3E0BAE00E94C301A3E0C0
:10025E00BAE053D0A0E0BAE050D0EDCFFFCFAA93D2
:10026E00E2B1EF70AE2FE881E07FEA2BE2B987E0D2
:10027E008A95F1F7129A82E18A95F1F7129882E146
:10028E008A95F1F777C0AA93A881E9DFE881E29514
:10029E00E883A881E4DF88EB8A95F1F76BC0AA9317
:1002AE00E881F0E0E55FF54FE081A981AE0FEBDF6D
:1002BE003980688022960895A2E00E94FF01ACE08A
:1002CE00E2DFA1E00E94FF01E0E06E2E3E2E0895D7
:1002DE00AA93A881AA3011F0351448F0E0E0EA9311
:1002EE006394A62DDCDFA881AA3009F443C03394B1
:1002FE00109AA881C8DF10983DC0BA93AA931A939A
:10030E00A981BA81ED91A983BA831E2FE03019F02D
:10031E00A12FDEDFF5CF188123960895AA93E1B1C0
:10032E00E06FE1B90A9A089A099A129810981198F2
:10033E005880E881E058E0930D0AE881E054E0939C
:10034E000E0AA4E1B0E00E940D020E9405020E9476
:10035E0005020E940502A0E282DF84E191E001978E
:10036E00F1F7A8E290DFA4E08EDFA5E88CDFA6E02F
:10037E008ADFA2DF21960895BA93AA93A991B99123
:10038E00E991F99130962AF4E095F09531966DE267
:10039E006D93E89480E197E20DD088EE93E00AD059
:1003AE0084E6992707D08AE005D06E2F10D06627F5
:1003BE006C9308956627E817F90720F06395E81BFC
:1003CE00F90BC9F7662311F416F008956894605D71
:1003DE006D9308950A921A92FA926A937A938A9377
:1003EE009A93AA93BA93EA93FA93EFB7EA9308957E
:1003FE000E944A01A3E0B0E00C940D02A0E30E941B
:10040E00360184E191E00197F1F70895109639F0E5
:10041E008DEC9AE00197F1F7A8951197C9F7089519
:00000001FF
