:040000000C948E00CE
:100004000C9400000C9400000C9400000C9400006C
:100014000C9400000C9400000C9400000C9400005C
:100024000C9400000C9400000C9400000C9400004C
:100034000C9400000C9400000C9400000C9400003C
:100044000C9400000C9400000C9400000C9400002C
:100054000C9400000C9400000C9400000C9400001C
:100064000C9400000C9400000C9400000C9400000C
:100074000C9400000C9400000C9400000C940000FC
:100084000C9400000C9400000C9400000C940000EC
:100094000C9400000C9400000C9400000C940000DC
:1000A4000C9400000C9400000C9400000C940000CC
:1000B4000C9400000C9400000C9400000C940000BC
:1000C4000C9400000C9400000C9400000C940000AC
:1000D4000C9400000C9400000C9400000C9400009C
:1000E4001027E80364000A0001000010000110005A
:1000F40001000000000001002D4E414E00494E4613
:10010400000080C004000300F6000100000AFA00A9
:100114000200040A06010000F894EE27EFBBF1E0A8
:10012400F5BFE5BFE0937400E0937500F8E1A8958E
:10013400A4B7A77FA4BFF0936000E09360008DE0B4
:10014400A2E0BB27ED938A95E9F780E090E2A0E076
:10015400B2E0ED930197E9F7E8E0F1E0859195913C
:10016400009761F0A591B59105901590BF01F0013C
:1001740005900D920197E1F7FB01F0CF8BBFE0E012
:10018400EEBBEFEFEDBFE1E2EEBFC0E0DAE00C94CE
:100194000501BA93AA93E881F9813097F1F0A32D70
:1001A400B42D11965097A4F0E1E0F0E0E515F605C2
:1001B40041F40E94410333244424552466240C94BE
:1001C4003F03E1E0F0E05E2E6F2E3324442404C0AC
:1001D400E1E0F0E03E0E4F1E14C0032C042861F44D
:1001E400E1E0F0E0E515F60531F455246624EFE08E
:1001F400F0E03E2E4F2E05C0E32DF42D31973E2E18
:100204004F2E0C943F032397E0E8E0936100E0E075
:10021400E0936100E2B9E1B9E5B9E4B9E8B9E7B955
:10022400EBB9EAB9EEB9EDB9E1BBE0BBE4BBE3BBC2
:10023400E0930201E0930101E0930501E0930401DE
:10024400E0930801E0930701E0930B01E0930A01B6
:10025400E093C000E0E1E093C100E6E4E093C20073
:10026400A0E10E9461030E948F031E2FE12FF0E0A2
:10027400FA93EA93DE0112960E94E602E12FF0E07F
:10028400EC31A0E0FA0739F40E949603A1E40E943D
:100294004D03A1E091C1E233A0E0FA0739F40E94D2
:1002A4009603A2E40E944D03A1E086C1E132A0E0DE
:1002B400FA0739F40E949603A3E40E944D03A1E0D7
:1002C4007BC1E332A0E0FA0739F40E949603A4E468
:1002D4000E944D03A1E070C1E432A0E0FA0739F4B2
:1002E4000E949603A5E40E944D03A1E065C1EB3290
:1002F400A0E0FA0739F40E949603A6E40E944D0395
:10030400A1E05AC1E433A0E0FA0739F40E9496034D
:10031400A7E40E944D03A1E04FC1E333A0E0FA0734
:1003240039F40E949603A8E40E944D03A1E044C15D
:10033400E334A0E0FA0739F40E949603A9E40E948A
:100344004D03A1E039C1EB33A0E0FA0739F40E9470
:100354009603AAE40E944D03A1E02EC1E234A0E07A
:10036400FA0739F40E949603ABE40E944D03A1E01E
:1003740023C1EB34A0E0FA0739F40E949603ACE4FD
:100384000E944D03A1E018C1EA33A0E0FA0739F452
:100394000E949603ADE40E944D03A1E00DC1E13338
:1003A400A0E0FA0739F40E949603AEE40E944D03DC
:1003B400A1E002C1E434A0E0FA0739F40E949603F4
:1003C400AFE40E944D03A1E0F7C0ED34A0E0FA07CA
:1003D40039F40E949603A0E50E944D03A1E0ECC00D
:1003E400E531A0E0FA0739F40E949603A1E50E94E2
:1003F4004D03A1E0E1C0ED32A0E0FA0739F40E9418
:100404009603A2E50E944D03A1E0D6C0EB31A0E023
:10041400FA0739F40E949603A3E50E944D03A1E074
:10042400CBC0EC32A0E0FA0739F40E949603A4E5AD
:100434000E944D03A1E0C0C0EC33A0E0FA0739F4F8
:100444000E949603A5E50E944D03A1E0B5C0EA32DF
:10045400A0E0FA0739F40E949603A6E50E944D0332
:10046400A1E0AAC0ED31A0E0FA0739F40E94960396
:10047400A7E50E944D03A1E09FC0E232A0E0FA0785
:1004840039F40E949603A8E50E944D03A1E094C0AC
:10049400E533A0E0FA0739F40E949603A9E50E9427
:1004A4004D03A1E089C0EA31A0E0FA0739F40E94C3
:1004B4009603AAE50E944D03A1E07EC0E534A0E0C6
:1004C400FA0739F40E949603A0E30E944D03A1E0C9
:1004D40073C0E631A0E0FA0739F40E949603A1E361
:1004E4000E944D03A1E068C0EE31A0E0FA0739F4A0
:1004F4000E949603A2E30E944D03A1E05DC0E63290
:10050400A0E0FA0739F40E949603A3E30E944D0386
:10051400A1E052C0E532A0E0FA0739F40E94960344
:10052400A4E30E944D03A1E047C0EE32A0E0FA0725
:1005340039F40E949603A5E30E944D03A1E03CC058
:10054400E633A0E0FA0739F40E949603A6E30E947A
:100554004D03A1E031C0ED33A0E0FA0739F40E9465
:100564009603A7E30E944D03A1E026C0EE33A0E06A
:10057400FA0739F40E949603A8E30E944D03A1E010
:100584001BC0E634A0E0FA0739F40E949603A9E3FD
:100594000E944D03A1E010C0E636A0E0FA0791F4F2
:1005A400A0E0B0E0F6DD0E949603A1E0B0E0F1DD4A
:1005B400A0E20E944D03A0E0B0E0EBDD0E948F03B7
:1005C4000E948F0350CEFFCFBA93AA93A991B991F9
:1005D400E991F99130962AF4E095F09531966DE21F
:1005E4006D93E89480E197E20DD088EE93E00AD011
:1005F40084E6992707D08AE005D06E2F10D06627AD
:100604006C9308956627E817F90720F06395E81BB3
:10061400F90BC9F7662311F416F008956894605D28
:100624006D930895AA93E2B1EF70AE2FE881E07F55
:10063400EA2BE2B987E08A95F1F7129A82E18A956A
:10064400F1F7129882E18A95F1F765C0AA93A8811F
:10065400E9DFE881E295E883A881E4DF88EB8A9505
:10066400F1F759C0AA93E881F0E0EC5FF54FE0811F
:10067400A981AE0FEBDF8980788022960895A2E0ED
:100684000E949A03ACE0E2DFA1E00E949A03E0E05A
:100694007E2E8E2E0895AA93A881AA3011F08A1472
:1006A40040F0E0E0EA937394A72DDCDFA881AA3040
:1006B40091F18394109AA881C9DF10982CC0AA9351
:1006C400E1B1E06FE1B90A9A089A099A1298109870
:1006D4001198A880E881E058E093060AE881E05484
:1006E400E093070AA4E1B0E00E94A8030E94A003DB
:1006F4000E94A0030E94A003A0E294DF84E191E0A1
:100704000197F1F7A8E2A2DFA4E0A0DFA5E89EDF4D
:10071400A6E09CDFB4DF21960895E091C000E07864
:10072400E1F3E091C60008953A92A52D0C943403A8
:100734000E942803A3E0B0E00C94A803A0E30E9465
:10074400140384E191E00197F1F70895109639F0CC
:100754008DEC9AE00197F1F7A8951197C9F70895E0
:00000001FF
