:040000000C948600D6
:100004000C9400000C9400000C9400000C9400006C
:100014000C9400000C9400000C9400000C9400005C
:100024000C9400000C9400000C9400000C9400004C
:100034000C9400000C9400000C9400000C9400003C
:100044000C9400000C9400000C9400000C9400002C
:100054000C9400000C9400000C9400000C9400001C
:100064000C9400000C9400000C9400000C9400000C
:100074000C9400000C9400000C9400000C940000FC
:100084000C9400000C9400000C9400000C940000EC
:100094000C9400000C9400000C9400000C940000DC
:1000A4000C9400000C9400000C9400000C940000CC
:1000B4000C9400000C9400000C9400000C940000BC
:1000C4000C9400000C9400000C9400000C940000AC
:1000D4000C9400000C9400000C9400000C9400009C
:1000E400000000007361656564202620616D6972FB
:1000F400000080C00D00000AE80004000300E400D2
:1001040002000D0AF6000000F894EE27EFBBF1E0C0
:10011400F5BFE5BFE0937400E0937500F8E1A8959E
:10012400A4B7A77FA4BFF0936000E09360008DE0C4
:10013400A2E0BB27ED938A95E9F780E090E2A0E086
:10014400B2E0ED930197E9F7E8EFF0E0859195913E
:10015400009761F0A591B59105901590BF01F0014C
:1001640005900D920197E1F7FB01F0CF8BBFE0E022
:10017400EEBBEFEFEDBFE1E2EEBFC0E0DAE00C94DE
:1001840019011A930A93E091D0001E2FE078D9F355
:100194000091D600E12FEC7111F4E02F01C0F3CFF0
:1001A400099119910895AA93E091D000E072E1F3C6
:1001B400E881E093D6000C941702BA93AA93E881DD
:1001C400F9813097F1F0A32DB42D11965097A4F036
:1001D400E1E0F0E0E515F60541F40E94D001332496
:1001E4004424552466240C94CE01E1E0F0E05E2E14
:1001F4006F2E3324442404C0E1E0F0E03E0E4F1E91
:1002040014C0032C042861F4E1E0F0E0E515F605E0
:1002140031F455246624EFE0F0E03E2E4F2E05C065
:10022400E32DF42D31973E2E4F2E0C94CE01E0E8B1
:10023400E0936100E0E0E0936100E2B9E1B9E5B97F
:10024400E4B9E8B9E7B9EBB9EAB9EEB9EDB9E1BB9C
:10025400E0BBE4BBE3BBE0930201E0930101E09364
:100264000501E0930401E0930801E0930701E093A2
:100274000B01E0930A01E093D000E8E1E093D100A0
:10028400E6E0E093D200E0E0E093D500E7E4E09319
:10029400D400A0E10E94EE010E94D00172DF1E2F63
:1002A400133639F433244424552466240E94D0019F
:1002B4003AC01E36E1F42297E0E0FAE0E883F983DD
:1002C40020E030E0A881B9810E9497012E173F07F2
:1002D40060F40E9419020E941C020E9423020E94E0
:1002E4001C0261DF2F5F3F4FEDCF22961CC01830F8
:1002F40099F4A8E058DFA0E256DFA8E054DF0E949A
:1003040028020E941902A1E0B0E057DFA0E20E9497
:10031400DA010E94280207C00E941902A12F0E943C
:100324002302A12F40DFBACFFFCFBA93AA93A9919A
:10033400B991EE27FF276D91662311F03196FBCF1B
:100344000895AA93E2B1EF70AE2FE881E07FEA2B23
:10035400E2B987E08A95F1F7129A82E18A95F1F77A
:10036400129882E18A95F1F760C0AA93A881E9DF27
:10037400E881E295E883A881E4DF88EB8A95F1F7C8
:1003840054C0AA93E881F0E0E35FF54FE081A981CE
:10039400AE0FEBDF8980788022960895A2E05AD0D0
:1003A400ACE0E3DFA1E056D0E0E07E2E8E2E08958F
:1003B400AA93A881AA3011F08A1440F0E0E0EA93ED
:1003C4007394A72DDEDFA881AA3079F18394109A63
:1003D400A881CBDF109829C0AA93E1B1E06FE1B9FD
:1003E4000A9A089A099A129810981198A880E88194
:1003F400E058E0930F0AE881E054E093100AA4E186
:10040400B0E00E9438022BD02AD029D0A0E299DF94
:1004140084E191E00197F1F7A8E2A7DFA4E0A5DF6A
:10042400A5E8A3DFA6E0A1DFB9DF219608953A92FB
:10043400A52DA7CFF901A881B981AE0FBF1FAC913B
:100444000895B6DFA1E0B0E00C94DF00A0E0B0E0D6
:100454000C94DF008ADFA3E0B0E00C943802A0E340
:1004640070DF84E191E00197F1F70895109639F077
:100474008DEC9AE00197F1F7A8951197C9F70895C3
:00000001FF
