:0C0000000C9485000C9400000C9400008F
:10000C000C9400000C9400000C9400000C94000064
:10001C000C9400000C9400000C9400000C94000054
:10002C000C9400000C9400000C9400000C94000044
:10003C000C9400000C9400000C9400000C94000034
:10004C000C9400000C9400000C9400000C94000024
:10005C000C9400000C9400000C9400000C94000014
:10006C000C9400000C9400000C9400000C94000004
:10007C000C9400000C9400000C9400000C940000F4
:10008C000C9400000C9400000C9400000C940000E4
:10009C000C9400000C9400000C9400000C940000D4
:1000AC000C9400000C9400000C9400000C940000C4
:1000BC000C9400000C9400000C9400000C940000B4
:1000CC000C9400000C9400000C9400000C940000A4
:1000DC000C9400000C9400002020000001002D4E18
:1000EC00414E00494E46000080C00300000AE40067
:1000FC000100060AE80002000A0AF4000000F89465
:10010C00EE27EFBBF1E0F5BFE5BFE0937400E093A1
:10011C007500F8E1A895A4B7A77FA4BFF093600081
:10012C00E09360008DE0A2E0BB27ED938A95E9F7A0
:10013C0080E090E2A0E0B2E0ED930197E9F7E6EF02
:10014C00F0E085919591009761F0A591B59105909E
:10015C001590BF01F00105900D920197E1F7FB019D
:10016C00F0CF8BBFE0E0EEBBEFEFEDBFE1E2EEBF17
:10017C00C0E0DAE00C94EA00AA93E881EF71E09316
:10018C007C00E881E07221F0E0917B00E86003C024
:10019C00E0917B00E77FE0937B0085E28A95F1F7A5
:1001AC00E0917A00E064E0937A00E0917A00E071EB
:1001BC00E1F3E0917A00E061E0937A00E09178005D
:1001CC00F09179000C940802E0E8E0936100E0E023
:1001DC00E0936100E2B9E1B9E5B9E4B9E8B9E7B98E
:1001EC00EBB9EAB9EEB9EDB9E1BBE0BBE4BBE3BBFB
:1001FC00E0930201E0930101E0930501EFEFE0933E
:10020C000401E0E0E0930801E0930701E0930B01A7
:10021C00E0930A01E0937E00E0937D00E0937C0084
:10022C00E4E8E0937A00A0E10E94DC010E94AA01BC
:10023C00E6E0EA93A0E00E949D01A2E09DDF3E2E45
:10024C004F2EE32DF42D0E9451030E948802AEE341
:10025C00B9E78CE990E40E94B602DF01CB01E0E043
:10026C00F0E060E271E40E9404030E9451023E2E11
:10027C004F2E4A923A92A3E0BAE00E944F01A3E0BB
:10028C00BAE00E94CB01A0E0BAE00E94CB01D0CF33
:10029C00FFCFBA93AA93A991B991E991F9913096AC
:1002AC002AF4E095F09531966DE26D93E89480E137
:1002BC0097E20DD088EE93E00AD084E6992707D018
:1002CC008AE005D06E2F10D066276C9308956627B0
:1002DC00E817F90720F06395E81BF90BC9F76623BB
:1002EC0011F416F008956894605D6D930895AA93C7
:1002FC00E2B1EF70AE2FE881E07FEA2BE2B987E044
:10030C008A95F1F7129A82E18A95F1F7129882E1B7
:10031C008A95F1F777C0AA93A881E9DFE881E29585
:10032C00E883A881E4DF88EB8A95F1F76BC0AA9388
:10033C00E881F0E0E65FF54FE081A981AE0FEBDFDD
:10034C006980588022960895A2E00E940A02ACE0CF
:10035C00E2DFA1E00E940A02E0E05E2E6E2E08951C
:10036C00AA93A881AA3011F0681448F0E0E0EA934F
:10037C005394A52DDCDFA881AA3009F443C0639403
:10038C00109AA881C8DF10983DC0BA93AA931A930B
:10039C00A981BA81ED91A983BA831E2FE03019F09F
:1003AC00A12FDEDFF5CF188123960895AA93E1B132
:1003BC00E06FE1B90A9A089A099A12981098119864
:1003CC008880E881E058E0930C0AE881E054E093DF
:1003DC000D0AA4E1B0E00E9418020E9410020E94D3
:1003EC0010020E941002A0E282DF84E191E00197EA
:1003FC00F1F7A8E290DFA4E08EDFA5E88CDFA6E0A1
:10040C008ADFA2DF219608950E949101A3E0B0E05B
:10041C000C941802A0E30E947D0184E191E0019705
:10042C00F1F70895109639F08DEC9AE00197F1F7F9
:10043C00A8951197C9F70895552342F4503811F433
:10044C00E0FF04C03196691F791F6BF050E8572705
:10045C0011F45F9373C05F3F31F0660F000C57953A
:10046C006795752F08955F9300200AF073C06CC0D8
:10047C0050E8192E1522880F991F9527550F87952F
:10048C0050E8072E0522660F771F7527550F6795C5
:10049C000895689401C0E8945F93F2DF703818F007
:1004AC007F3F08F44BC056E1571BAAF451955830C6
:1004BC000EF4593030F0EFEFFFEF6FEF7FE777F985
:1004CC001AC077275523B9F0EE0FFF1F661F771F51
:1004DC005A95D1F710C07727583028F0EF2FF62F08
:1004EC00672F5850F9CF552331F076956795F795CE
:1004FC00E7955A95D1F700200AF4C5D05F9108957D
:10050C00689401C0E894309760407040B1F00024CA
:10051C0026F0772312F40094B6D0172E7EE111202A
:10052C0032F07A95EE0FFF1F661F111CF9CFEF2FDB
:10053C00F62F612D5F938ADF5F910895EE27FF27D9
:10054C00662777275F910895EFEFFFEF6FE77FEF57
:10055C005F910895EFEFFFEF6FE77FE75F910895ED
:10056C005F9386DF703851F3903841F3012408947F
:10057C00791F23F41CF300203AF3ECCF0F921F9356
:10058C002F933F934F93112722279927689FA00100
:10059C008F9F302D410D591F6B9F300D411D591FE1
:1005AC008E9F27D0BF9F25D06A9F23D0BE9F1DD082
:1005BC00AF9F1BD0AE9F110D291F391F491F591F0B
:1005CC00E32FF42F652F522F4F913F912F911F91B5
:1005DC000F9066232AF0550FEE1FFF1F661F02C0F7
:1005EC0073954BF229DF5F910895100D211D391F72
:1005FC0002C0200D311D491F591F08955F9338DF2C
:10060C00703821F411200AF49FCFA4CF903809F44C
:10061C0095CF01240894970B1BF4D4F30020F3CF4F
:10062C00792F1F932F933F934F9311241127222738
:10063C0033274427552790E2AE17BF07860741079B
:10064C0030F0AE1BBF0B860B410B089401C0889495
:10065C00551F221F331F111CAA1FBB1F881F441FAD
:10066C009A9551F7F901612D4F913F912F911F915F
:10067C00662332F0550FEE1FFF1F661F7A9543F26B
:10068C00DBDE5F910895F09560957095E195FF4FD5
:10069C006F4F7F4F08956F2F660F660B762F08955F
:00000001FF
