:060000000C9480000C943A
:1000060000000C9400000C9400000C9400000C946A
:1000160000000C9400000C9400000C9400000C945A
:1000260000000C9400000C9400000C9400000C944A
:1000360000000C9400000C9400000C9400000C943A
:1000460000000C9400000C9400000C9400000C942A
:1000560000000C9400000C9400000C9400000C941A
:1000660000000C9400000C9400000C9400000C940A
:1000760000000C9400000C9400000C9400000C94FA
:1000860000000C9400000C9400000C9400000C94EA
:1000960000000C9400000C9400000C9400000C94DA
:1000A60000000C9400000C9400000C9400000C94CA
:1000B60000000C9400000C9400000C9400000C94BA
:1000C60000000C9400000C9400000C9400000C94AA
:1000D60000000C9400000C9400000C940000EB88C7
:1000E600B3BAD87A7BA8FBFA000000000A00000A1F
:1000F600E40004000300EE000000F894EE27EFBBD6
:10010600F1E0F5BFE5BFE0937400E0937500F8E118
:10011600A895A4B7A77FA4BFF0936000E093600002
:100126008DE0A2E0BB27ED938A95E9F780E090E2A7
:10013600A0E0B2E0ED930197E9F7E2EFF0E08591F8
:100146009591009761F0A591B59105901590BF0125
:10015600F00105900D920197E1F7FB01F0CF8BBFFF
:10016600E0E0EEBBEFEFEDBFE1E2EEBFC0E0DAE0CC
:100176000C94BD00E0E8E0936100E0E0E0936100EC
:10018600E1BBE0EFE0BBE0E0E0930801EFEFE093D6
:100196000701A32DB42D26D0E0E82ED0EAE0F0E04A
:1001A60033D0E0E429D0E4E6F0E02ED0E0E224D03B
:1001B600E8EEF3E029D0E0E1E1BBA5E0B0E00E9483
:1001C6000B01ECE3F0E0E515F60531F45524662461
:1001D600E1E0F0E03E0E4F1EE1E0F0E05E0E6F1E45
:1001E600D8CFFFCFEAE0F0E00E942801E050F64FBA
:1001F600E081E09308010895E1BBA5E0B0E00E942C
:100206000B01A32DB42D08950E941501DF01EACF3D
:10021600109639F08DEC9AE00197F1F7A8951197B1
:10022600C9F708950024112490E1AA0FBB1F001CF2
:10023600111C0E1A1F0A18F40E0E1F1E01C0A16013
:100246009A9599F7FD01D0010895ECDFFD01089517
:00000001FF
